:1000000001308A0037290000FF00030E8301A100A0
:100010000A08A0008A010408A2007708A300780853
:10002000A4007908A5007A08A600831383128B1D0B
:100030001B280B182C28220884002308F70024080A
:10004000F8002508F9002608FA0020088A00210E89
:100050008300FF0E7F0E09008A110A1243283630F2
:10006000840083130008031942280630F800F701C2
:10007000F70B3828F80B37287B30F700F70B3E28B2
:10008000800B35280800831606168312061A7F286F
:100090000130AB00831606168312061A532801306E
:1000A000B6002F204A282B0B7F28FE30B000AF016E
:1000B0002F08073C031C7E28831688018312300812
:1000C0008800831606168312061E75288316861668
:1000D0008312861E7528831606178312061F75283D
:1000E000831686178312861B7728AB017E2864301F
:1000F000B6002F200310B00DAF0A582853288316DE
:1001000086168312861ABB280130AC008316861629
:100110008312861A8F280130B6002F2086282C0BD8
:10012000BB287F30B200B1013108073C031CBA285C
:1001300083168801831232088800831606168312FC
:10014000061EB128831686168312861EB1288316D2
:1001500006178312061FB128831686178312861B83
:10016000B328AC01BA286430B6002F200310B20CBB
:10017000B10A94288F28831606178312061BF528C8
:100180000130AD00831606178312061BCB28013001
:10019000B6002F20C2282D0BF528B4018316880144
:1001A000831234088800831606168312061EE72879
:1001B000831686168312861EE72883160617831277
:1001C000061FE728831686178312861BE928AD01D0
:1001D000F5286430B6002F2083168801FF30831283
:1001E00088006430B6002F20CB2883168617831230
:1001F000861B33290130AE00831686178312861BB7
:1002000005290130B6002F20FC282E0B3329B5011B
:100210003508073C031C3229273035078400831337
:100220000008B600831688018312360888008316FA
:1002300006168312061E2B29831686168312861E27
:100240002B29831606178312061F2B298316861760
:100250008312861B2D29AE013229C830B6002F200B
:10026000B50A082905290B108A110A121B28030850
:100270001F398300AB01AC01AD01AE0183161F1421
:100280009F141F159F1107309C0083134830831261
:10029000A7007D30A800C330A900CF30AA00831684
:1002A0008801FF30831288000B108B15C0308B043F
:0202B0006300E9
:02400E00323F3F
:00000001FF
;PIC16F877A
;CRC=4FDB  CREATED="11-Oct-17 23:59"
