:1000000001308A0026290000FF00030E8301A100B1
:100010000A08A0008A010408A2007708A300780853
:10002000A4007908A5007A08A600831383128B1D0B
:100030001B280B182C28220884002308F70024080A
:10004000F8002508F9002608FA0020088A00210E89
:100050008300FF0E7F0E09008A110A1243283130F7
:10006000840083130008031942280630F800F701C2
:10007000F70B3828F80B37287B30F700F70B3E28B2
:10008000800B35280800831606168312061A7F286F
:100090000130A700831606168312061A5328013072
:1000A000B1002F204A28270B7F28FE30AC00AB017F
:1000B0002B08073C031C7E288316880183122C081A
:1000C0008800831606168312061E75288316861668
:1000D0008312861E7528831606178312061F75283D
:1000E000831686178312861B7728A7017E28643023
:1000F000B1002F200310AC0DAB0A582853288316EB
:1001000086168312861ABB280130A800831686162D
:100110008312861A8F280130B1002F208628280BE1
:10012000BB287F30AE00AD012D08073C031CBA2868
:100130008316880183122E08880083160616831200
:10014000061EB128831686168312861EB1288316D2
:1001500006178312061FB128831686178312861B83
:10016000B328A801BA286430B1002F200310AE0CC8
:10017000AD0A94288F28831606178312061B0D29B3
:100180000130A900831606178312061BCB28013005
:10019000B1002F20C228290B0D29B0018316880138
:1001A000831230088800831606178312061FE7287B
:1001B000831606168312061EE728831686168312F8
:1001C000861EE728831686178312861B0129A9013C
:1001D0000D29831606178312061FFD28831606169F
:1001E0008312061EFD28831686168312861EFD289E
:1001F000831686178312861B01290130B1002F2038
:10020000E9286430B1002F2083168801FF30831263
:1002100088006430B1002F20CB2883168617831204
:10022000861B2229AA08031D18290130AA001929B2
:10023000AA01831686178312861B22290130B1007A
:100240002F2019290B108A110A121B2803081F39A5
:100250008300A701A801A901AA0183161F149F14F6
:100260001F159F1107309C0083138801FF308312F4
:0C02700088000B108B15C0308B0463005D
:02400E00323F3F
:00000001FF
;PIC16F877A
;CRC=5E29  CREATED="11-Oct-17 22:43"
