:1000000001308A0071290000FF00030E8301A10066
:100010000A08A0008A010408A2007708A300780853
:10002000A4007908A5007A08A600831383128B1D0B
:100030001B280B182C28220884002308F70024080A
:10004000F8002508F9002608FA0020088A00210E89
:100050008300FF0E7F0E09008A110A1243283630F2
:10006000840083130008031942280630F800F701C2
:10007000F70B3828F80B37287B30F700F70B3E28B2
:10008000800B35280800831606168312061A882866
:100090000130AB00831606168312061A532801306E
:1000A000B6002F204A282B0B8828FE30B000AF0165
:1000B0002F08073C031C8728831688018312300809
:1000C0008800831606168312061E75288316861668
:1000D0008312861E7528831606178312061F75283D
:1000E000831686178312861B8028AB018728831608
:1000F00006168312061A80280130B6002F207728B2
:100100006430B6002F200310B00DAF0A58285328D2
:10011000831686168312861ACD280130AC0083160A
:1001200086168312861A98280130B6002F208F2851
:100130002C0BCD287F30B200B1013108073C031CE5
:10014000CC2883168801831232088800831606168D
:100150008312061EBA28831686168312861EBA28B4
:10016000831606178312061FBA2883168617831272
:10017000861BC528AC01CC28831686168312861AE6
:10018000C5280130B6002F20BC286430B6002F20CF
:100190000310B20CB10A9D28982883160617831203
:1001A000061B2F290130AD00831606178312061B8C
:1001B000DD280130B6002F20D4282D0B2F29B401C3
:1001C000831688018312340888008316061683126A
:1001D000061EF928831686168312861EF9288316B2
:1001E00006178312061FF928831686178312861BAB
:1001F0000429AD012F29831606178312061B042933
:100200000130B6002F20FB286430B6002F20831663
:100210008801FF3083128800831606168312061E9B
:100220002029831686168312861E20298316061718
:100230008312061F2029831686178312861B2B29FB
:10024000AD012F29831606178312061B2B290130B7
:10025000B6002F2022296430B6002F20DD28831617
:1002600086178312861B6D290130AE008316861710
:100270008312861B3F290130B6002F2036292E0B12
:100280006D29B5013508033C031C6C29273035075F
:10029000840083130008B600831688018312360891
:1002A0008800831606168312061E65298316861695
:1002B0008312861E6529831606178312061F652979
:1002C000831686178312861B6729AE016C2964305A
:1002D000B6002F20B50A42293F290B108A110A12B5
:1002E0001B2803081F398300AB01AC01AD01AE012F
:1002F00083161F149F141F159F1107309C00831332
:100300007E308312A700BD30A800DB30A900E730A3
:10031000AA0083168801FF30831288000B108B150A
:06032000C0308B046300F5
:02400E00323F3F
:00000001FF
;PIC16F877A
;CRC=084C  CREATED="12-Oct-17 00:26"
